:100000000C9462000C948A000C948A000C948A0070
:100010000C948A000C948A000C948A000C948A0038
:100020000C948A000C948A000C948A000C948A0028
:100030000C948A000C948A000C948A000C948A0018
:100040000C9437090C948A000C9405090C94DF0871
:100050000C948A000C948A000C948A000C948A00F8
:100060000C9481090C948A000000000024002700F1
:100070002A0000000000250028002B0000000000DE
:1000800023002600290004040404040404040202DA
:100090000202020203030303030301020408102007
:1000A0004080010204081020010204081020000012
:1000B0000008000201000003040700000000000027
:1000C0000000A00A11241FBECFEFD8E0DEBFCDBFD5
:1000D00024E0A2E4B2E001C01D92AF30B207E1F724
:1000E00012E0A0E0B1E0E0E1FAE202C005900D927A
:1000F000A234B107D9F710E0C2E6D0E004C02197DE
:10010000FE010E946D10C136D107C9F70E94E80AAE
:100110000C9406150C94000008950895AF92BF92B8
:10012000CF92DF92EF92FF920F931F93CF93DF93C3
:100130006C017B018B01040F151FEB015E01AE18F2
:10014000BF08C017D10759F06991D601ED91FC9114
:100150000190F081E02DC6010995892B79F7C50141
:10016000DF91CF911F910F91FF90EF90DF90CF9093
:10017000BF90AF900895FC01538D448D252F30E042
:10018000842F90E0821B930B541710F0CF960895A4
:1001900001970895FC01918D828D981761F0A28DD1
:1001A000AE0FBF2FB11D5D968C91928D9F5F9F7397
:1001B000928F90E008958FEF9FEF0895FC01918D4D
:1001C000828D981731F0828DE80FF11D858D90E0BA
:1001D00008958FEF9FEF0895FC01918D228D892F57
:1001E00090E0805C9F4F821B91098F73992708953F
:1001F00086E593E00E94EC0021E0892B09F420E0E1
:10020000822F089580E090E0892B29F00E94F80069
:1002100081110C9400000895FC01A48DA80FB92F42
:10022000B11DA35ABF4F2C91848D90E001968F731E
:100230009927848FA689B7892C93A089B1898C913D
:10024000837080648C93938D848D981306C002888C
:10025000F389E02D80818F7D80830895EF92FF9256
:100260000F931F93CF93DF93EC0181E0888F9B8DD9
:100270008C8D98131AC0E889F989808185FF15C093
:100280009FB7F894EE89FF896083E889F9898081B6
:100290008370806480839FBF81E090E0DF91CF9185
:1002A0001F910F91FF90EF900895F62E0B8D10E0A7
:1002B0000F5F1F4F0F731127E02E8C8D8E110CC016
:1002C0000FB607FCFACFE889F989808185FFF5CF61
:1002D000CE010E940C01F1CFEB8DEC0FFD2FF11D33
:1002E000E35AFF4FF0829FB7F8940B8FEA89FB899E
:1002F00080818062CFCFCF93DF93EC01888D8823FC
:10030000B9F0AA89BB89E889F9898C9185FD03C078
:10031000808186FD0DC00FB607FCF7CF8C9185FF5D
:10032000F2CF808185FFEDCFCE010E940C01E9CF95
:10033000DF91CF910895833081F028F4813099F0D6
:100340008230A9F008958730A9F08830C9F0843050
:10035000B1F4809180008F7D03C0809180008F7701
:1003600080938000089584B58F7784BD089584B507
:100370008F7DFBCF8091B0008F778093B000089580
:100380008091B0008F7DF9CFCF93DF93282F30E09D
:10039000F901E255FF4F8491F901E656FF4FD491E0
:1003A000F901EA57FF4FC491CC23A1F081110E94BB
:1003B0009B01EC2FF0E0EE0FFF1FE458FF4FA591DB
:1003C000B491EC91ED2381E090E009F480E0DF91BD
:1003D000CF91089580E090E0FACF1F93CF93DF9301
:1003E000282F30E0F901E255FF4F8491F901E656DC
:1003F000FF4FD491F901EA57FF4FC491CC23A9F0E4
:10040000162F81110E949B01EC2FF0E0EE0FFF1FD1
:10041000EE58FF4FA591B4918FB7F894EC9111115C
:1004200008C0D095DE23DC938FBFDF91CF911F9161
:100430000895DE2BF8CFCF93DF9390E0FC01E656D2
:10044000FF4F24918A579F4FFC0184918823D1F05C
:1004500090E0880F991FFC01E859FF4FA591B491D6
:10046000FC01EE58FF4FC591D491623071F49FB7F3
:10047000F8943C91822F809583238C93E8812E2BD6
:1004800028839FBFDF91CF9108958FB7F894EC91A7
:100490002E2B2C938FBFF6CF2091300190E4299F13
:1004A000900111248E50822B80937C0080917A00E1
:1004B000806480937A0080917A0086FDFCCF8091E1
:1004C00078009091790008953FB7F89480910703E0
:1004D00090910803A0910903B0910A0326B5A89B47
:1004E00005C02F3F19F00196A11DB11D3FBFBA2FC6
:1004F000A92F982F8827BC01CD01620F711D811D86
:10050000911D42E0660F771F881F991F4A95D1F70A
:1005100008958F929F92AF92BF92CF92DF92EF9207
:10052000FF924B015C010E9464026B017C010E94FE
:1005300064026C197D098E099F09683E734081052C
:100540009105A8F321E0821A9108A108B10888EE6C
:10055000C80E83E0D81EE11CF11C81149104A10493
:10056000B10429F7FF90EF90DF90CF90BF90AF904C
:100570009F908F9008952FB7F89460910303709126
:10058000040380910503909106032FBF08952091E5
:10059000B802260F3327331F21323105ECF42091A6
:1005A000DC02FC0190E080E0243069F082E00895F4
:1005B000A091B8022191AC0148565D4FA40FB52F10
:1005C000B11D2C930196861798F38091B802680F9D
:1005D0006093B80280E0089581E008951092DC02F3
:1005E00081E08093DE021092DD0261E082E10E94F0
:1005F000ED0161E083E10E94ED01E9EBF0E0808133
:100600008E7F808380818D7F808388E48093B80093
:1006100085E48093BC000895CF93DF9391E090939D
:1006200097028823B9F0C091B800D091BA008091A8
:10063000BC008A7B8093BC0060E082E10E94ED01F7
:1006400060E083E10E94ED010E94EE02D093BA00C7
:10065000C093B800DF91CF9108950895E0911203FF
:1006600080911103E81730F4F0E0EE58FD4F8081DF
:1006700090E008958FEF9FEF08959091120380917D
:1006800011032FEF3FEF981748F4E92FF0E0EE58F1
:10069000FD4F208130E09F5F90931203C9010895C0
:1006A0008091110390911203891B990B0895CF92A9
:1006B000DF92EF92FF920F931F93CF93DF937C0112
:1006C000CB018A0120917102222389F0EB016B0199
:1006D000C40ED51ECC15DD0569F06991D701ED91E9
:1006E000FC910190F081E02DC7010995F3CF642FB3
:1006F0000E94C702C801DF91CF911F910F91FF9017
:10070000EF90DF90CF900895CF93DF931F92CDB7F6
:10071000DEB76983209171022223F9F020910F0343
:10072000203258F021E030E0FC013383228390E056
:1007300080E00F90DF91CF91089580911003E82F12
:10074000F0E0EF5AFD4F998190838F5F8093100303
:1007500080930F0381E090E0ECCF61E0CE01019641
:100760000E94C702F7CFCF92DF92EF92FF920F93D2
:100770001F93CF93DF93FC01C48121E0209371028A
:10078000C09350021092100310920F038385682BC0
:1007900083EF93E00E948403D0910F03D13208F0DD
:1007A00092C00E9464026B017C018091DC02811185
:1007B00065C082E08093DC0281E08093DE028FEFEF
:1007C0008093DB0210920003D093FF02A1E5B2E018
:1007D000EFEDF2E080E0D81385C010920103809124
:1007E0000103CC0FC82BC09301038091DD0281303F
:1007F00009F07CC01092DD020E9464026B017C0152
:10080000809101038093BB008091930290919402A8
:10081000A0919502B0919602892B8A2B8B2B99F08F
:100820000E9464020091930210919402209195021B
:10083000309196026C197D098E099F0906171707DA
:1008400028073907E0F18091BC0083FDD9CF85EC02
:100850008093BC000E9464026B017C018091DC02E9
:10086000823009F445C08091DB028F3F61F18091B5
:10087000DB02803241F18091DB0225C0809193023E
:1008800090919402A0919502B0919602892B8A2BA7
:100890008B2B09F48ACF0E9464020091930210917D
:1008A000940220919502309196026C197D098E096F
:1008B0009F09061717072807390708F076CF809198
:1008C00092020E940C031092100310920F031092D8
:1008D0007102DF91CF911F910F91FF90EF90DF9008
:1008E000CF9008959D9191938F5F75CF85EEB0CF96
:1008F0008091930290919402A0919502B0919602FA
:10090000892B8A2B8B2B09F4A9CF0E9464020091BA
:1009100093021091940220919502309196026C19E5
:100920007D098E099F09061717072807390708F060
:1009300095CFC5CF089590E080E008950F931F9361
:10094000CF93DF938C01C0914202D0914302209754
:1009500041F40E94BB02709343026093420280E024
:100960000CC00E94BB026C1B7D0B06171707B8F763
:10097000109243021092420281E0DF91CF911F91C9
:100980000F910895CF93DF93EC01809150039091E4
:100990005103009759F020915203309153032C17C3
:1009A0003D0720F081E0DF91CF910895BE016F5F98
:1009B0007F4F0E949811009789F090935103809384
:1009C0005003D0935303C0935203209154033091AA
:1009D0005503232B39F7FC011082E4CF80E0E3CFED
:1009E0000F931F93CF93DF9300D0CDB7DEB78983EA
:1009F0001A8200915403109155030F5F1F4FC801D5
:100A00000E94C2048823A1F0209150033091510329
:100A10008091540390915503BE016F5F7F4F820F09
:100A2000931F0E945E12109355030093540381E0BC
:100A30000F900F90DF91CF911F910F910895FB01BF
:100A400001900020E9F73197AF01461B570BDC01FD
:100A5000ED91FC910280F381E02D0994CF93DF9317
:100A6000BC0186E593E00E941F05EC016FE771E091
:100A700086E593E00E941F058C0F9D1FDF91CF91AB
:100A800008950F931F93CF938C01C62F0E94B30339
:100A90006C2F6460C8010E94B3036C2F6B7FC80188
:100AA0000E94B30383EC90E00197F1F7CF911F917F
:100AB0000F9108950F931F93CF93DF938C01D62F3F
:100AC000C42F607F642B0E94410580E1D89FB00154
:100AD00011246C2BC801DF91CF911F910F910C94C1
:100AE000410540E061E08FEF93E00E945A058BE3FF
:100AF0009FE10197F1F70895CF93DF93823028F0BB
:100B0000909104049860909304048093070462E336
:100B100070E080E090E00E94890260910A048FEF0B
:100B200093E00E94B30368EE73E080E090E00E94DF
:100B3000890260E38FEF93E00E944105CBE4D6E4A5
:100B4000CE010197F1F760E38FEF93E00E9441053A
:100B50002197F1F760E38FEF93E00E94410583E571
:100B600092E00197F1F760E28FEF93E00E94410578
:100B700060910404606240E08FEF93E00E945A05A8
:100B800084E08093050440E06CE08FEF93E00E94E6
:100B90005A050E94710582E08093060440E066E0F9
:100BA0008FEF93E00E945A0540E062E08FEF93E000
:100BB0000E945A058BE39FE10197F1F7DF91CF91F6
:100BC0000895CF93DF93CDB7DEB728970FB6F8948B
:100BD000DEBF0FBECDBF98E0E7E3F1E0DE01119686
:100BE00001900D929A95E1F790910704961710F4F1
:100BF0006FEF690F262F30E0220F331F41E050E0E6
:100C00004C0F5D1F240F351FF9016081680F60686C
:100C100040E08FEF93E028960FB6F894DEBF0FBE4A
:100C2000CDBFDF91CF910C945A050F931F93CF93B3
:100C3000DF93182F062FEA0121110E947105602F02
:100C4000812F0E94E105BE018FEF93E0DF91CF91EC
:100C50001F910F910C941F05CF93DF93EC0160E07F
:100C600088E00E94E105C130D105E9F044F420E0BC
:100C70004DE951E0CD2B59F0DF91CF910895C2306D
:100C8000D10569F020E042E851E02397A9F761E03F
:100C900070E088E090E0DF91CF910C94150620E0A1
:100CA0004BE851E0F4CF20E044E951E0F0CF0F935E
:100CB0001F93CF93DF93CDB7DEB7A8970FB6F89405
:100CC000DEBF0FBECDBF8E010F5F1F4F28E2F801C0
:100CD00011922A95E9F7880F991FFC01E15CFE4FFC
:100CE00081818F9380818F9386EA91E09F938F9388
:100CF0001F930F930E946512F80101900020E9F7FD
:100D000031970F900F900F900F900F900F9020E25F
:100D10002193CF01801B910B4197D4F320E0A801D0
:100D200070E060E090E080E00E941506A8960FB6A3
:100D3000F894DEBF0FBECDBFDF91CF911F910F9111
:100D40000895EF92FF920F931F93CF93DF93CDB748
:100D5000DEB764970FB6F894DEBF0FBECDBF8C012F
:100D6000CE0101967C0184E1F70111928A95E9F7A1
:100D700020E041EB51E061E070E090E080E00E9413
:100D800015068091430390914403892B29F51F9305
:100D90000F938AEB91E09F938F93FF92EF920E94C3
:100DA000651220E0A70161E070E090E080E00E9421
:100DB00015060F900F900F900F900F900F90649664
:100DC0000FB6F894DEBF0FBECDBFDF91CF911F915C
:100DD0000F91FF90EF90089520E042EC51E0023037
:100DE000110511F048EC51E061E070E090E080E026
:100DF0000E941506E4CFCF93DF930E947105C3E4F0
:100E0000D3E08C8190E00E9457068A819B810E94EA
:100E1000A1068D819E81DF91CF910C942C0641E03B
:100E20000E945A0581E090E008950F931F93CF939D
:100E3000DF938B0198E0899FB0011124606440E04A
:100E40008FEF93E00E945A05E801085F1F4F6991F8
:100E50008FEF93E00E940F07C017D107C1F7DF9112
:100E6000CF911F910F9108951F93CF93DF93EC01C2
:100E7000162F0E940C10181739F0612FCE01DF9148
:100E8000CF911F910C941410DF91CF911F91089571
:100E900085ED8093BC008091930290919402A09183
:100EA0009502B09196020796A11DB11D23E0B6955B
:100EB000A795979587952A95D1F72091BC0024FD99
:100EC00003C01092DC020895409193025091940265
:100ED0006091950270919602452B462B472B69F342
:100EE0000097A105B10541F025E32A95F1F700002F
:100EF0000197A109B109E1CF809192020C940C03F2
:100F0000AF92BF92CF92DF92EF92FF920F931F9317
:100F1000CF93DF93D1E082E0C82ED12CEE24E3946E
:100F2000F12C23E0A22EB12C86E593E00E94EC0088
:100F3000892B09F439C186E593E00E94CA00C82FC5
:100F40008091480281112AC01092510310925003DF
:100F500010925303109252031092550310925403AF
:100F600090E080E00E94C204209150033091510330
:100F7000811127C02115310519F0C9010E940F11F7
:100F80001092510310925003109255031092540383
:100F90001092530310925203D0934802809146025C
:100FA000909147028130910509F4C0C0A0F08230D1
:100FB000910509F450C0039709F496C090E080E0D1
:100FC00073C0109255031092540361E871E0C90197
:100FD0000E945E12E1CF90E080E00E94C204209166
:100FE00050033091510381111DC02115310519F0B5
:100FF000C9010E940F1110925103109250031092D8
:1010000055031092540310925303109252031092FE
:10101000450210924402C63479F4D0924702C0923D
:101020004602CCCF109255031092540361E871E050
:10103000C9010E945E12EBCFC93429F4B092470275
:10104000A0924602BBCFCC3409F0B8CFF092470251
:10105000E0924602B3CF0091440210914502CD3098
:1010600051F08C2F0E94F0040F5F1F4F1093450228
:1010700000934402A3CF023011052CF010924702D6
:10108000109246029BCF809150039091510360E0F3
:10109000009711F00E94D00F60934703109247020F
:1010A0001092460281E090E020914C0330914D0374
:1010B0002230310509F038CF20914A0330914B039B
:1010C000232B09F031CF8230910509F45FC08330C2
:1010D000910509F462C0019709F026CF809147037A
:1010E00090E00E94570620CF0091440210914502E3
:1010F000CD3009F0B6CF023011050CF0BFCF809192
:10110000500390915103009769F00E94D00F7093A3
:10111000490360934803109247021092460283E00D
:1011200090E0C2CF60E070E0CB01F1CF00914402CB
:1011300010914502CD3009F094CF053011050CF027
:101140009DCF80915003909151030097B1F00E9480
:10115000D00F70934603609345036C32710514F40D
:10116000672B79F4109244031092430310924702C4
:101170001092460282E090E097CF60E070E0CB01F1
:10118000E8CFF0924403E0924303F0CF809145030F
:10119000909146030E94A106C7CE8091480390918A
:1011A00049030E942C06C0CEDF91CF911F910F9171
:1011B000FF90EF90DF90CF90BF90AF9008951F9277
:1011C0000F920FB60F9211242F933F934F935F937B
:1011D0006F937F938F939F93AF93BF93EF93FF93FF
:1011E00086E593E00E940C01FF91EF91BF91AF91D2
:1011F0009F918F917F916F915F914F913F912F912F
:101200000F900FBE0F901F9018951F920F920FB660
:101210000F9211242F938F939F93EF93FF93E0915D
:101220006603F09167038081E0916C03F0916D0398
:1012300082FD1BC0908180916F038F5F8F7320911F
:101240007003821741F0E0916F03F0E0EA5AFC4F1F
:10125000958F80936F03FF91EF919F918F912F91C5
:101260000F900FBE0F901F9018958081F4CF1F92A2
:101270000F920FB60F9211242F933F938F939F934A
:10128000AF93BF938091030390910403A091050352
:10129000B09106033091020323E0230F2D3758F558
:1012A0000196A11DB11D2093020380930303909327
:1012B0000403A0930503B093060380910703909164
:1012C0000803A0910903B0910A030196A11DB11D65
:1012D0008093070390930803A0930903B0930A0334
:1012E000BF91AF919F918F913F912F910F900FBE22
:1012F0000F901F90189526E8230F0296A11DB11D8F
:10130000D2CF1F920F920FB60F9211242F933F93BB
:101310004F935F936F937F938F939F93AF93BF93FD
:10132000EF93FF938091B900887F803609F44AC01B
:10133000F0F5883209F4A7C018F5803109F49BC094
:10134000B8F4882309F4F9C0883009F494C0FF91F7
:10135000EF91BF91AF919F918F917F916F915F912D
:101360004F913F912F910F900FBE0F901F901895A6
:10137000883109F488C0803251F78093DB0214C0B1
:10138000803409F49DC040F48033B9F38833F9F612
:101390008093DB0285ECB0C0803509F485C08835C8
:1013A00009F496C0883499F60E944807D0CF88394E
:1013B00009F48CC038F5883729F050F4883611F0DC
:1013C000803729F683E08093DC021092DA0257C05E
:1013D000883809F47BC0803919F0803809F0B7CF1C
:1013E0008091DA02803208F071C0E091DA0281E087
:1013F0008E0F8093DA028091BB00F0E0E654FD4F3F
:1014000080833DC0803B39F0E0F4803A09F479C034
:10141000883A09F09CCF84E08093DC021092B902F4
:101420001092B802E0910D03F0910E03099580919E
:10143000B80281110FC081E08093B8021092980227
:1014400009C0803C09F4A6CF883C09F4A3CF883BAF
:1014500009F07DCFE091B90281E08E0F8093B9024F
:10146000F0E0E856FD4F80818093BB009091B90277
:101470008091B80229C0809101038093BB0085EC64
:101480008093BC0064CF909100038091FF02981775
:1014900058F5E091000381E08E0F80930003F0E0A7
:1014A000E152FD4F8081E9CFE091000381E08E0F92
:1014B000809300038091BB00F0E0E152FD4F8083F8
:1014C000909100038091FF029817C8F285E8D8CF69
:1014D000E091000381E08E0F809300038091BB00B8
:1014E000F0E0E152FD4F80838091DE0281115CCFFC
:1014F00081E08093DD0284EA8093BC001092DC02DC
:1015000026CF85EC8093BC001092DC028091DA0239
:10151000803230F4E091DA02F0E0E654FD4F1082C0
:101520006091DA0270E0E0910B03F0910C038AEB1A
:1015300092E009951092DA020ACF1092DB0234CFC2
:10154000E6E5F3E01382128288EE93E0A0E0B0E0DB
:1015500084839583A683B78323E531E03183208399
:1015600025EC30E03587248724EC30E03787268768
:1015700020EC30E0318B208B21EC30E0338B228B60
:1015800022EC30E0358B248B26EC30E0378B268B39
:10159000118E128E138E148EE3EFF3E013821282FB
:1015A00084839583A683B78385E691E091838083C6
:1015B000EFEFF3E01382128287E791E0918380835B
:1015C00087E2848380E1818782E0828713860895A1
:1015D000CF93DF93CDB7DEB7A7970FB6F894DEBFF2
:1015E0000FBECDBF789484B5826084BD84B5816020
:1015F00084BD85B5826085BD85B5816085BD8091DE
:101600006E00816080936E00109281008091810055
:10161000826080938100809181008160809381004D
:10162000809180008160809380008091B10084600F
:101630008093B1008091B00081608093B000809170
:101640007A00846080937A0080917A00826080932F
:101650007A0080917A00816080937A0080917A008C
:10166000806880937A001092C1008FEC91E09F9384
:101670008F9386ED91E09F938F9383E193E09F9307
:101680008F930E94651290E080E00E940C1080937E
:101690004E0381E090E00E940C1080934F0361E0C4
:1016A00082E00E941B0261E083E00E941B0260E076
:1016B00082E00E94ED0160E083E00E94ED0161E0C4
:1016C00082E00E94ED011092120310921103109219
:1016D000100310920F030E94EE028CE890E09093AA
:1016E0000E0380930D038DE890E090930C0380939C
:1016F0000B0310920404809109040E947C0568E2A7
:1017000071E080E00E94150760E271E081E00E94D4
:10171000150768E171E082E00E94150760E171E061
:1017200085E00E94150768E071E087E00E941507D8
:1017300060E071E084E00E94150782E00E947C0571
:101740000E94710588E080930A0460E08FEF93E0C7
:101750000E94B30362E085E00E941B0282E090E0F9
:1017600090934D0380934C0321E04EED51E070E0E7
:1017700060E090E080E00E94150620E043E153E045
:1017800061E070E090E080E00E94150660E08CE08F
:101790000E94E10560E08FEF93E00E940F0760E098
:1017A0008EE00E94E10560E08FEF93E00E940F075A
:1017B00061E08DE00E94E10561E08FEF93E00E941F
:1017C0000F0761E08CE00E94E10562E08FEF93E09B
:1017D0000E940F0761E08EE00E94E10562E08FEF5A
:1017E00093E00E940F0781E08093300161E08EE07A
:1017F0000E941B02ECEBF0E0E4910F900F900F9031
:101800000F900F900F90E33009F4F1C150F4E130E4
:10181000E1F0E23009F4E5C161E08EE00E94ED0103
:1018200019C0E73009F4EFC1E83009F4F5C1E4303C
:1018300099F78091800080628093800084EF91E02E
:1018400090938B0080938A0005C084B5806884BD26
:1018500084EF87BDE0916603F091670382E08083A7
:10186000E0916203F09163031082E0916403F091D0
:10187000650380E1808310926E03E0916A03F0912A
:101880006B0386E08083E0916803F09169038081B7
:1018900080618083E0916803F091690380818860B2
:1018A0008083E0916803F091690380818068808380
:1018B000E0916803F091690380818F7D808385E5E5
:1018C00090E0909349038093480310924B03109249
:1018D0004A0361E084E00E941B0261E084E00E9410
:1018E000ED0161E083E00E94ED010E94BB0286E50C
:1018F00093E00E94EC00892BD1F30E948007809135
:101900004E03609147038E010F5F1F4F8F3F09F019
:101910008CC160934E038091480380934F0390E005
:1019200080E00E94141060914F0381E090E00E94DB
:1019300014100E9480070E94FB060E94BB027E01D9
:10194000FFE1EF0EF11C71E1472E72E0572EE0E14E
:101950002E2E312CF8012EE111922A95E9F785E01F
:101960000E94C401C0904C03D0904D03892B09F014
:1019700016C28091250390912603892B31F40E9491
:10198000BB0270932603609325030E94BB02209143
:10199000250330912603621B730B80912403811170
:1019A00089C16333710518F081E08093240380912D
:1019B0004C0390914D0361E08230910581F0892BB9
:1019C00009F0B3C288EC90E00E949E04882351F095
:1019D00083E00E94C40161E0892B09F060E083E0AC
:1019E0000E94ED010E948007C0902703D090280339
:1019F000C114D104F9F00E94BB026C157D0508F0FA
:101A000097C2C094D0946C0D7D1D69397A4390F0D3
:101A100080914A0390914B03892B99F40E94FB0615
:101A20001092280310922703E2E0F0E0F0934D03B8
:101A3000E0934C0380914A0390914B03892B09F466
:101A4000C3C060E080E00E94E1056BE172E08FEFCF
:101A500093E00E941F0561E080E00E94E1056DE1D6
:101A600072E08FEF93E00E941F05C0903F03D0907B
:101A700040039601220F331FC901875C9C4F9DA331
:101A80008CA38090410390904203FC0140815181DE
:101A9000841A950AC9018F5C9C4F9FA38EA3609006
:101AA000370370903803FC0120813181621A730A78
:101AB0008FE00E944C025C01ECA1FDA19183808328
:101AC00080E10E944C02EEA1FFA191838083A80CCB
:101AD000B91CB0924203A0924103680E791E709225
:101AE000380360923703FFEFCF1ADF0A23E0C216F4
:101AF000D10408F020C2D0924003C0923F03C50138
:101B00006FE970E00E9459105B01C3016FE970E05A
:101B10000E9459104B01C0902F03D0903003CA147B
:101B2000DB0408F00DC2B0923003A0922F030E9494
:101B3000BB0270932E0360932D03C0902B03D090B3
:101B40002C03C814D90408F013C290922C0380927D
:101B50002B030E94BB0270932A0360932903CC24B9
:101B6000C394D12C7C2C60E08C2D0E94E1058091E7
:101B70002F039091300364E0C816D90629F065E080
:101B8000AC14BD0408F467E08FEF93E00E940F07E8
:101B900061E0872D0E94E10580912B0390912C0339
:101BA00064E0C816D90629F065E08C149D0408F499
:101BB00067E08FEF93E00E940F07EFEFCE1ADE0A87
:101BC000F1E1CF16D10471F680E090E0892B09F4A1
:101BD000C1CE0E94F800882309F4BCCE0E94000008
:101BE000B9CE84B5806284BD84EF88BD33CE809148
:101BF000800080688093800084EF91E0909389005A
:101C00008093880027CE8091B00080688093B000D8
:101C100084EF8093B3001ECE8091B00080628093E9
:101C2000B00084EF8093B40015CE95E0F8011192D6
:101C30009A95E9F78617B9F01F928F938AEE91E093
:101C40009F938F931F930F930E94651286E593E0F5
:101C50000E947B01C8010E942E050F900F900F90EB
:101C60000F900F900F9085E0F80111928A95E9F797
:101C70009091480380914F03833009F45ACE98170E
:101C800009F457CE1F928F938EEE91E09F938F931E
:101C90001F930F930E94651286E593E00E947B01DB
:101CA000C8010E942E050F900F900F900F900F907B
:101CB0000F903FCE693E734008F479CE80912303A4
:101CC000811175CE91E0C916D10409F45CC0F0F120
:101CD000F2E0CF16D10409F06ACE10924D031092B3
:101CE0004C0321E042EF51E070E060E090E080E0E2
:101CF0000E941506E0914703E450FF0BEE0FFF1F13
:101D0000E95BFE4F81818F9380818F9386EA91E01A
:101D10009F938F931F930F930E94651220E0A80159
:101D200061E070E090E080E00E94150681E0809321
:101D300023030E94BB0270932803609327030F9034
:101D40000F900F900F900F900F9031CE81E090E0A8
:101D500090934D0380934C0321E042E052E070E009
:101D600060E090E080E00E941506E0914F03F0E013
:101D7000EE0FFF1FE15CFE4F81818F9380818F9377
:101D80005F924F92C7CF0E94FB0682E090E0909353
:101D90004D0380934C0381E08093230308CE809110
:101DA0002303882349F010922303109226031092F4
:101DB000250310922403FBCD809124038823A9F3EB
:101DC00091E0C916D10409F477C0C0F0F2E0CF1653
:101DD000D10459F780914A0390914B03892B39F430
:101DE00081E090E090934B0380934A03DECF109202
:101DF0004B0310924A030E94FB06D7CF85E0F70100
:101E000011928A95E9F7B0904703B394F7E0FB1578
:101E100010F444E0B42ECB2CD12C1F92BF928AEE4A
:101E200091E09F938F93FF92EF920E94651286E557
:101E300093E00E947B01C7010E942E05B0924E03E1
:101E40006B2D90E080E00E943407F601EE0FFF1F3B
:101E5000E15CFE4F81818F9380818F9386EA91E0D0
:101E60009F938F931F930F930E946512F801019027
:101E70000020E9F73197CF01801B910BA101481B8E
:101E8000590B60E270E0800F911F0E945512198A71
:101E900020E0A80161E070E090E080E00E9415067B
:101EA0000E94BB0270932803609327030FB6F89437
:101EB000DEBF0FBECDBF79CF85E0F70111928A95C5
:101EC000E9F78091480390914F03933009F483E040
:101ED000BB24B394B80EF3E0FB1508F4B12CCB2C63
:101EE000D12C1F92BF928EEE91E09F938F93FF9221
:101EF000EF920E94651286E593E00E947B01C70184
:101F00000E942E05B0924F036B2D81E090E00E945D
:101F10003407F601EE0FFF1FE15CFE4F81818F93C6
:101F200080818F935F924F929DCF84E690E04CCD5D
:101F30006C197D096ACD1092400310923F03DFCDEA
:101F40000E94BB0220912D0330912E03621B730B64
:101F50006B3F710508F4F1CDC114D10409F4E7CD4C
:101F600081E0C81AD108D0923003C0922F03DFCD90
:101F70000E94BB022091290330912A03621B730B3C
:101F80006B3F710508F4EBCDC114D10409F4E1CD28
:101F900091E0C91AD108D0922C03C0922B03D9CD5D
:101FA0001F93FC0199278827BC01E89411911032F6
:101FB000E9F3193010F01E30C8F31B3251F01D3216
:101FC00049F4689406C00E94F70F610F711D811DCE
:101FD000911D119110531A30B0F33EF490958095F5
:101FE000709561957F4F8F4F9F4F1F910895592F87
:101FF000482F372F262F660F771F881F991F660FD0
:10200000771F881F991F620F731F841F951F660F0C
:10201000771F881F991F0895F999FECF92BD81BD42
:10202000F89A992780B50895262FF999FECF1FBAFF
:1020300092BD81BD20BD0FB6F894FA9AF99A0FBEF1
:10204000019608952F923F924F925F926F927F92E6
:102050008F929F92AF92BF92CF92DF92EF92FF92B8
:102060000F931F93CF93DF93CDB7DEB7CA1BDB0B64
:102070000FB6F894DEBF0FBECDBF09942A88398809
:1020800048885F846E847D848C849B84AA84B98410
:10209000C884DF80EE80FD800C811B81AA81B9811C
:1020A000CE0FD11D0FB6F894DEBF0FBECDBFED0130
:1020B0000895AA1BBB1B51E107C0AA1FBB1FA6178F
:1020C000B70710F0A61BB70B881F991F5A95A9F7E1
:1020D00080959095BC01CD010895EE0FFF1F0590EE
:1020E000F491E02D09940F931F93CF93DF938230E7
:1020F000910510F482E090E0E0910D04F0910E045F
:1021000030E020E0B0E0A0E0309799F421153105EF
:1021100009F44AC0281B390B24303105D8F58A81CF
:102120009B816115710589F1FB0193838283FE0117
:1021300011C0408151810281138148175907E0F095
:102140004817590799F4109761F012960C9312975B
:1021500013961C933296CF01DF91CF911F910F916F
:10216000089500930D0410930E04F4CF211531054A
:1021700051F04217530738F0A901DB019A01BD0164
:10218000DF01F801C1CFEF01F9CF90930E048093E6
:102190000D04CDCFFE01E20FF31F819391932250E6
:1021A000310939832883D7CF20910B0430910C0457
:1021B000232B41F4209133013091340130930C04EE
:1021C00020930B042091310130913201211531050A
:1021D00041F42DB73EB74091350150913601241B93
:1021E000350BE0910B04F0910C04E217F307A0F417
:1021F0002E1B3F0B2817390778F0AC014E5F5F4F5D
:102200002417350748F04E0F5F1F50930C0440937E
:102210000B04819391939FCFF0E0E0E09CCFCF93AC
:10222000DF930097E9F0FC01329713821282A091AC
:102230000D04B0910E04ED0130E020E01097A1F400
:1022400020813181820F931F20910B0430910C0467
:102250002817390709F061C0F0930C04E0930B04D0
:10226000DF91CF910895EA01CE17DF07E8F54A81A3
:102270005B819E0141155105B1F7E901FB83EA83BA
:1022800049915991C40FD51FEC17FD0761F4808166
:1022900091810296840F951FE90199838883828139
:1022A00093819B838A83F0E0E0E012968D919C916C
:1022B00013970097B9F52D913C911197CD01029696
:1022C000820F931F20910B0430910C0428173907BB
:1022D00039F6309751F510920E0410920D04B09318
:1022E0000C04A0930B04BCCFD383C28340815181E3
:1022F000840F951FC817D90761F44E5F5F4F88811F
:102300009981480F591F518340838A819B81938310
:1023100082832115310509F0B0CFF0930E04E093CC
:102320000D049ECFFD01DC01C0CF13821282D7CFF6
:10233000B0E0A0E0EEE9F1E10C9424108C010097EC
:1023400051F4CB010E9473108C01C801CDB7DEB7E8
:10235000E0E10C944010FC01E60FF71F9C012250B5
:102360003109E217F30708F49DC0D901CD91DC9142
:102370001197C617D70798F0C530D10530F3CE01B5
:1023800004978617970708F3C61BD70B2297C193AC
:10239000D1936D937C93CF010E940F11D6CF5B0137
:1023A000AC1ABD0A4C018C0E9D1EA0910D04B0917B
:1023B0000E04512C412CF12CE12C109731F5809119
:1023C0000B0490910C048815990509F05CC0461621
:1023D000570608F058C08091310190913201009762
:1023E00041F48DB79EB74091350150913601841B61
:1023F000950BE817F90708F055C0F0930C04E0932B
:102400000B04F90171836083A0CF8D919C9111978A
:1024100012966C90129713967C901397A815B90595
:1024200059F56C0142E0C40ED11CCA14DB0420F142
:10243000AC014A195B09DA011296159780F06282A5
:10244000738251834083D9016D937C93E114F1042D
:1024500071F0D7011396FC93EE93129776CF2296E4
:102460008C0F9D1FF90191838083F301EFCFF093CF
:102470000E04E0930D0469CF4816590608F42C01A8
:102480007D01D3019ACFCB010E9473107C0100978C
:1024900049F0AE01B8010E945512C8010E940F1107
:1024A000870153CF10E000E050CFFB01DC0102C0F8
:1024B00001900D9241505040D8F70895FB01DC0186
:1024C00001900D920020E1F70895AEE0B0E0EBE658
:1024D000F2E10C9430100D891E8986E08C831A83FA
:1024E00009838FEF9FE79E838D83AE01475E5F4F29
:1024F0006F89788DCE0101960E9488122F813885D0
:10250000020F131FF80110822E96E4E00C944C1079
:10251000ABE0B0E0EEE8F2E10C9422107C013B016C
:102520008A01FC0117821682838181FFC8C1CE0116
:1025300001965C01F7019381F30193FD859193FF6F
:1025400081913F01882309F453C1853239F493FD09
:10255000859193FF81913F01853229F4B70190E085
:102560000E947814E7CF912C212C312CFFE1F31538
:1025700038F08B3211F190F4803209F1833229F175
:1025800037FC3CC020ED280F2A3050F536FE20C025
:102590008AE0989E200D1124922E06C08D3291F073
:1025A000803371F7689430F8F30193FD859193FFC0
:1025B00081913F018111DACF21C0689431F868948C
:1025C00032F8F2CF689433F8EFCF689434F8ECCF58
:1025D000EAE02E9E200D1124222E689435F8E4CFD7
:1025E0008E3229F436FC04C1689436F8DDCF8C367F
:1025F00019F4689437F8D8CF8836B1F2982F9F7DB8
:1026000095549330E0F08336A1F18337C1F18335DF
:1026100009F063C02801F2E04F0E511CF801C080A0
:10262000D180692D70E036FC02C06FEF7FEFC601EC
:102630000E9462144C01689437F882010AC00C5F52
:102640001F4FFFE3F98388248394912C6501E8945C
:1026500037F833FE2DC0522C8114910471F55520AA
:1026600009F468CFB70180E290E00E9478145A9490
:10267000F6CFF801808189830E5F1F4FE4CF2801D8
:10268000F2E04F0E511CF801C080D180692D70E03E
:1026900036FC02C06FEF7FEFC6010E946D144C0143
:1026A0008201D5CFB70180E290E00E9478142A948D
:1026B0002814190409F0B0F7CECFF60137FC859144
:1026C00037FE81916F01B70190E00E94781451109C
:1026D0005A94F1E08F1A9108BFCF843619F08936E9
:1026E00009F077C0F80137FE6BC06081718182818B
:1026F00093810C5F1F4FF32DFF763F2E97FF09C08C
:1027000090958095709561957F4F8F4F9F4F6894FE
:1027100037F82AE030E0A5010E94A814C82ECA1894
:102720008C2C432C36FE0CC0E89440F8C91440F4BD
:1027300034FE05C032FC03C0F32DFE7E4F2E892CE3
:1027400044FE95C0FE01EC0DF11D8081803309F03F
:1027500087C0242D297E422E842D8870582E43FC5C
:1027600095C040FE8FC09C2C821418F42C0C922C27
:10277000981844FE91C0B70180E390E00E9478145D
:1027800042FE09C088E790E041FE02C088E590E083
:10279000B7010E947814C91408F48AC0CA94D12CD5
:1027A0009FEFC91AD90ACA0CDB1CF60182916F018E
:1027B000B70190E00E947814AC14BD04B1F74FCF7C
:1027C00060817181072E000C880B990B0E5F1F4FE3
:1027D00092CFD32CE894D4F82AE030E0853739F151
:1027E000232D297FD22E8F3601F148F48835A9F0A8
:1027F000F701868197812B96E2E10C943E10803799
:1028000049F08837A9F7D4FE02C06894D2F820E1D5
:1028100030E00DC06894D4F8F6CF34FE03C0822FA8
:102820008660D82E20E132E002C028E030E0F801D6
:10283000D7FE0FC060817181828193810C5F1F4F31
:10284000A5010E94A814C82ECA183D2CE89437F898
:1028500067CF6081718190E080E00E5F1F4FF0CF05
:1028600042FC02C0839478CF8394839475CF842DE7
:10287000867809F471CFF6CFB70180E290E00E942C
:10288000781483948214C0F3512C73CF522C5818AF
:10289000821408F46ECFF8CF842D867809F47BCFAC
:1028A0008BE241FE80E247FC8DE2B70190E071CF00
:1028B000B70180E390E00E9478149A946CCF8FEF78
:1028C0009FEF99CFFC010590615070400110D8F73F
:1028D000809590958E0F9F1F0895FC016150704068
:1028E00001900110D8F7809590958E0F9F1F089545
:1028F0000F931F93CF93DF93182F092FEB018B8139
:1029000081FD09C01FEF0FEF812F902FDF91CF9135
:102910001F910F91089582FF14C02E813F818C81F9
:102920009D81281739073CF4E881F981CF01019690
:102930009983888310838E819F8101969F838E83E4
:10294000E3CFE885F985812F0995892BA1F3DACFAB
:10295000FA01AA27283051F1203181F1E8946F93D0
:102960006E7F6E5F7F4F8F4F9F4FAF4FB1E03ED076
:10297000B4E03CD0670F781F891F9A1FA11D680F14
:10298000791F8A1F911DA11D6A0F711D811D911D47
:10299000A11D20D009F468943F912AE0269F1124BC
:1029A0003019305D3193DEF6CF010895462F477020
:1029B000405D4193B3E00FD0C9F7F6CF462F4F707B
:1029C000405D4A3318F0495D31FD4052419302D0D9
:1029D000A9F7EACFB4E0A69597958795779567957F
:1029E000BA95C9F700976105710508959B01AC017F
:1029F0000A2E06945795479537952795BA95C9F7A6
:102A0000620F731F841F951FA01D0895F894FFCFB8
:102A100001000005050000010100000000000001A8
:102A20000100001B1B00000100040E1F1F0E04000C
:102A3000001F1F0E0E0404000004040E0E1F1F00D2
:102A40000100000F04800000004000140054001F2B
:102A50000223028F01860127022E0234023C02006B
:102A60000000002E018E00BB007B01EC00CA00DEDE
:102A70000000000000840357039B042D0350033D16
:102A8000032E03000000000F078E009B049A040D24
:102A90000A00496E3A204175746F00496E3A20432E
:102AA0006F617800496E3A20544F532000496E3AC6
:102AB00020555342200046696C7465723A20257394
:102AC0000020202020202020200050434D2025647D
:102AD0004B0044534436340044534431323800569A
:102AE000312E312E310046573A2020257300537481
:102AF000617274696E672E2E2E004625640049258A
:102B0000640046696C746572206D6F6465204F4E79
:102B10002E00496E707574206D6F6465204F4E2EC7
:102B200000496E7075743A202573004C00520055B0
:102B3000534200544F53006C696E656172006D69B9
:102B4000786564006D696E696D756D00736F66748C
:022B5000000083
:00000001FF
